S01300004D43555F50726F6A6563742E73726563F6
S11300000C942A000C9447000C9447000C9447006D
S11300100C9447000C9447000C9447000C94470040
S11300200C9447000C9447000C9447000C94470030
S11300300C9447000C9447000C9447000C94470020
S11300400C9447000C9447000C9447000C94470010
S11300500C94470011241FBECFE5D8E0DEBFCDBF0E
S113006010E0A0E6B0E0E6ECFAE002C005900D92E4
S1130070A83BB107D9F721E0A8EBB0E001C01D927D
S1130080AD35B207E1F70E946F040C9461050C943E
S11300900000672B09F09FC0009711F4D8980895C9
S11300A08130910511F4D99808958230910511F4A5
S11300B0DA9808958330910511F4DB98089584301B
S11300C0910511F4DC9808958530910511F4DD98BB
S11300D008958630910511F4DE98089587309105CE
S11300E011F4DF9808958A30910511F4C0980895A9
S11300F08B30910511F4C19808958C30910511F459
S1130100C29808958D30910511F4C39808958E30E6
S1130110910511F4C49808958F30910511F4C59890
S113012008958031910511F4C6980895813191059F
S113013011F4C79808958431910511F4A89808958D
S11301408531910511F4A99808958631910511F42A
S1130150AA9808958731910511F4AB9808958831D0
S1130160910511F4AC9808958931910511F4AD9875
S113017008958A31910511F4AE9808958B31910553
S113018011F4AF9808958E31910511F49098089563
S11301908F31910511F4919808958032910511F4ED
S11301A0929808958132910511F4939808958232BA
S11301B0910511F4949808958332910511F495985A
S11301C008958432910511F496980895859709F05D
S11301D09FC097980895009711F4D89A0895813094
S11301E0910511F4D99A08958230910511F4DA9A9F
S11301F008958330910511F4DB9A089584309105B4
S113020011F4DC9A08958530910511F4DD9A08956E
S11302108630910511F4DE9A08958730910511F422
S1130220DF9A08958A30910511F4C09A08958B30AD
S1130230910511F4C19A08958C30910511F4C29A74
S113024008958D30910511F4C39A08958E30910567
S113025011F4C49A08958F30910511F4C59A089544
S11302608031910511F4C69A08958131910511F4F4
S1130270C79A08958431910511F4A89A0895853197
S1130280910511F4A99A08958631910511F4AA9A59
S113029008958731910511F4AB9A08958831910539
S11302A011F4AC9A08958931910511F4AD9A089529
S11302B08A31910511F4AE9A08958B31910511F4A8
S11302C0AF9A08958E31910511F4909A08958F3163
S11302D0910511F4919A08958032910511F4929A3E
S11302E008958132910511F4939A0895823291050B
S11302F011F4949A08958332910511F4959A08950E
S11303008432910511F4969A0895859709F4979A81
S11303100895CF93C82F80FF07C061E070E088E1A3
S113032090E00E94490006C060E070E088E190E03F
S11303300E944900C1FF07C061E070E089E190E0DC
S11303400E94490006C060E070E089E190E00E94EC
S11303504900C2FF07C061E070E08AE190E00E94BA
S1130360490006C060E070E08AE190E00E94490024
S1130370C3FF07C061E070E08BE190E00E94490098
S113038006C060E070E08BE190E00E944900CF91EC
S11303900895CF93C82F60E070E084E190E00E945C
S11303A049008C2F0E94890161E070E085E190E0B2
S11303B00E94490089EF90E00197F1F700C0000026
S11303C060E070E085E190E00E94490089EF90E0F0
S11303D00197F1F700C00000CF91089580E00E94DA
S11303E0C90181E00E94C9010895CF93C62F8130CD
S11303F059F480E8860F82958F700E94C9018C2F72
S11304008F700E94C9010CC0823051F480EC860FB9
S113041082958F700E94C9018C2F8F700E94C90130
S1130420CF91089580E00E94890187E893E10197C4
S1130430F1F700C0000083E00E94C90181EE94E05E
S11304400197F1F700C0000083E00E94C9018DEB21
S11304509AE00197F1F700C0000083E00E94C9010F
S113046082E00E94C90182E00E94C90188E00E94E2
S1130470C90180E00E94C9018CE00E94C90180E0AA
S11304800E94C90186E00E94C9010895CF93C82F34
S113049061E070E084E190E00E9449008C2F829535
S11304A08F700E94890161E070E085E190E00E9414
S11304B0490089EF90E00197F1F700C0000060E087
S11304C070E085E190E00E94490089EF90E0019797
S11304D0F1F700C000008C2F8F700E94890161E049
S11304E070E085E190E00E94490089EF90E0019777
S11304F0F1F700C0000060E070E085E190E00E9448
S1130500490089EF90E00197F1F700C00000CF9116
S11305100895CF93DF93EC018881882331F02196ED
S11305200E94460289918111FBCFDF91CF910895FA
S11305308F3F2FEF920771F488E090E028E02BBB07
S11305400197E9F70895908132969BBBE217F30770
S1130550D1F70DC082959295907F9827807F982738
S1130560FC01EF58FF4F9C012F573F4FECCF88E021
S11305708BBB0895880F880F880F93E0980F8C5FCA
S1130580E3E6F0E0268122BB9BBB8BBB88E08BBB00
S1130590978192BB8BBB660F660F660F92E0960F36
S11305A09BBB6D5F6BBB440F440F440F94E0940FEF
S11305B09BBB4B5F4BBB8BBB089580916B009091B1
S11305C06C0020916D0030916E0030936C0020938C
S11305D06B002091BA003091BB0030936E002093E1
S11305E06D009093BB008093BA0008954F925F9280
S11305F06F927F928F929F92AF92BF92CF92DF922F
S1130600EF92FF920F931F93CF93DF938091BE00DD
S11306109091BF00892B11F0C59AEBC0C59886B3A1
S11306208C7090E09595879595958795019703979C
S113063008F0C1C081E090E09093C1008093C000B5
S1130640BAC040916B0050916C0060916D00709144
S11306506E008091BA009091BB000E94BA02E1142E
S1130660F10449F586B38C7090E09595879595953E
S113067087958230910531F08130910529F4862DDA
S1130680972D02C0842D952D2091C2003091C30076
S11306902F5F3F4F3093C3002093C200E2EDF0E0A0
S11306A03291229133832283EC15FD05C9F701971A
S11306B0F60191838083F6018081918199230CF462
S11306C08FC08281938199230CF48AC0B182A08265
S11306D087C08091C0009091C100892B19F0888156
S11306E082BB01C012BAF401819191914F010E9421
S11306F098028091C2009091C300039724F0109255
S1130700C3001092C20021960815190511F7FFEFD6
S1130710EF1AFF0A88EEE81683E0F80609F091CF95
S1130720C6988091CE009091CF00181619060CF44B
S113073001962091BA003091BB008217930799F07B
S1130740992314F181E090E09093BF008093BE0060
S11307500E94EE0160E081E00E94F50181EA90E0F0
S11307600E94890211C099237CF08091BE0090916F
S1130770BF00892B49F48091BC009091BD00019683
S11307809093BD008093BC008091BC009091BD000B
S113079060916F00709170000E94AC048091B80069
S11307A09091B9008617970724F57093B900609368
S11307B0B800C69A1EC0E12CF12C0F2EF4ECCF2EFB
S11307C0F0E0DF2EF02D44244394512C68946624E9
S11307D061F8712CAA24AA94BA2C00ED10E031CF50
S11307E00F2EF4EC8F2EF0E09F2EF02DC3E6D0E018
S11307F070CFDF91CF911F910F91FF90EF90DF9019
S1130800CF90BF90AF909F908F907F906F905F90AC
S11308104F900895B49B0E94DD02B0990E94DD02BE
S113082086B38091BE009091BF00892B71F44091F2
S11308306B0050916C0060916D0070916E0080911E
S1130840BA009091BB000E94BA02089580E687BB6B
S11308508FEF84BB089583E0EAEDF0E0DF011D92A1
S11308608A95E9F7E0E6F0E001900020E9F7319796
S1130870AF014056504060E070E08AED90E00E9485
S11308803A058AED90E00E94D4042091BC00309196
S1130890BD0082179307B4F44AE050E06AED70E0BB
S11308A0C9010E94F204E0E6F0E001900020E9F7BB
S11308B03197AF014056504060E070E08AED90E01F
S11308C00E944A0564E082E00E94F50183EB90E017
S11308D00E9489028AED90E00E94890208958FEFB8
S11308E08ABB81BB0E942604E4ECF0E024ED30E0F6
S11308F08FEF9FEF81939193E217F307D9F780E885
S113090084BF84BF18BA0E94120261E081E00E9491
S1130910F5018BEA90E00E9489024AE050E064ED20
S113092070E08091BC009091BD000E94F20461E0EF
S113093082E00E94F50184ED90E00E9489020E9409
S11309400A040E94F6028091BE009091BF00892B98
S113095021F30E942B04E1CF97FB072E16F4009499
S113096007D077FD09D00E94C00407FC05D03EF4EF
S1130970909581959F4F0895709561957F4F089547
S1130980AA1BBB1B51E107C0AA1FBB1FA617B707B1
S113099010F0A61BB70B881F991F5A95A9F78095CD
S11309A09095BC01CD010895FC0188279927E8940E
S11309B021912032E9F3293010F02E30C8F32B3284
S11309C041F02D3239F4689404C00E940805820F66
S11309D0911D219120532A30C0F31EF490958195E6
S11309E09F4F08954532510520F4423010F00C9485
S11309F0FD04FB011082CB010895BB274A3031F47A
S1130A00992322F4BDE2909581959F4F0C94110592
S1130A107AE0979F902D879F802D910D1124089542
S1130A20BB27FB015527AA27880F991FAA1FA417C4
S1130A3010F0A41B83955051B9F7A05DAA3308F0B8
S1130A40A95DA193009779F7B111B1931192CB01EC
S1130A500C942A05DC01FC01672F71917723E1F7DF
S1130A60329704C07C916D9370836291AE17BF0777
S1130A70C8F30895DC01CB01FC01E199FECF06C067
S1130A80FFBBEEBBE09A31960DB20D92415050403F
S1130A90B8F70895DC01CB0103C02D910E945505E0
S1130AA041505040D0F70895262FE199FECF9FBBC7
S1130AB08EBB2DBB0FB6F894E29AE19A0FBE019655
S1090AC00895F894FFCF35
S1130AC631300001020408102040800300020005B2
S1130AD600000001000200030004000500060007F0
S1130AE60010001100120013001400150016001760
S1130AF600180019001A001B001C001D001E001F10
S1130B060047414D45204F5645520053636F726569
S10B0B163A200048533A200084
S9030000FC
